{
  "contractName": "Doctors",
  "abi": [
    {
      "inputs": [],
      "payable": false,
      "stateMutability": "nonpayable",
      "type": "constructor"
    },
    {
      "anonymous": false,
      "inputs": [
        {
          "indexed": false,
          "internalType": "uint256",
          "name": "doctorID",
          "type": "uint256"
        },
        {
          "indexed": false,
          "internalType": "string",
          "name": "name",
          "type": "string"
        },
        {
          "indexed": false,
          "internalType": "string",
          "name": "specialistType",
          "type": "string"
        },
        {
          "indexed": false,
          "internalType": "string",
          "name": "phone",
          "type": "string"
        },
        {
          "indexed": false,
          "internalType": "string",
          "name": "email",
          "type": "string"
        },
        {
          "indexed": false,
          "internalType": "string",
          "name": "addr",
          "type": "string"
        }
      ],
      "name": "DoctorCreated",
      "type": "event"
    },
    {
      "constant": true,
      "inputs": [],
      "name": "DoctorCount",
      "outputs": [
        {
          "internalType": "uint256",
          "name": "",
          "type": "uint256"
        }
      ],
      "payable": false,
      "stateMutability": "view",
      "type": "function"
    },
    {
      "constant": true,
      "inputs": [
        {
          "internalType": "uint256",
          "name": "",
          "type": "uint256"
        }
      ],
      "name": "doctors",
      "outputs": [
        {
          "internalType": "uint256",
          "name": "doctorID",
          "type": "uint256"
        },
        {
          "internalType": "string",
          "name": "name",
          "type": "string"
        },
        {
          "internalType": "string",
          "name": "specialistType",
          "type": "string"
        },
        {
          "internalType": "string",
          "name": "phone",
          "type": "string"
        },
        {
          "internalType": "string",
          "name": "email",
          "type": "string"
        },
        {
          "internalType": "string",
          "name": "addr",
          "type": "string"
        }
      ],
      "payable": false,
      "stateMutability": "view",
      "type": "function"
    },
    {
      "constant": false,
      "inputs": [
        {
          "internalType": "string",
          "name": "_name",
          "type": "string"
        },
        {
          "internalType": "string",
          "name": "_specialistType",
          "type": "string"
        },
        {
          "internalType": "string",
          "name": "_phone",
          "type": "string"
        },
        {
          "internalType": "string",
          "name": "_email",
          "type": "string"
        },
        {
          "internalType": "string",
          "name": "_addr",
          "type": "string"
        }
      ],
      "name": "createDoctor",
      "outputs": [],
      "payable": false,
      "stateMutability": "nonpayable",
      "type": "function"
    }
  ],
  "bytecode": "0x6080604052600080553480156200001557600080fd5b50620000e060405180604001604052806005815260200164566976656b60d81b8152506040518060400160405280600c81526020016b141cde58da1bdb1bd9da5cdd60a21b8152506040518060400160405280600a8152602001690383035343834353336360b41b8152506040518060400160405280601981526020017f766976656b6b756d6177617433363040676d61696c2e636f6d000000000000008152506040518060400160405280600581526020016420b536b2b960d91b815250620000e660201b60201c565b620004c0565b6000805460019081018083556040805160c08101825282815260208082018b81528284018b9052606083018a90526080830189905260a0830188905293865284815291909420845181559151805192936200014a939085019291909101906200041b565b5060408201518051620001689160028401916020909101906200041b565b5060608201518051620001869160038401916020909101906200041b565b5060808201518051620001a49160048401916020909101906200041b565b5060a08201518051620001c29160058401916020909101906200041b565b509050507fef10807f56c3b4f2d472eba8ac4d25bca8d2c584884cbe289323666f74e9dcfb600054868686868660405180878152602001806020018060200180602001806020018060200186810386528b818151815260200191508051906020019080838360005b83811015620002445781810151838201526020016200022a565b50505050905090810190601f168015620002725780820380516001836020036101000a031916815260200191505b5086810385528a5181528a516020918201918c019080838360005b83811015620002a75781810151838201526020016200028d565b50505050905090810190601f168015620002d55780820380516001836020036101000a031916815260200191505b5086810384528951815289516020918201918b019080838360005b838110156200030a578181015183820152602001620002f0565b50505050905090810190601f168015620003385780820380516001836020036101000a031916815260200191505b5086810383528851815288516020918201918a019080838360005b838110156200036d57818101518382015260200162000353565b50505050905090810190601f1680156200039b5780820380516001836020036101000a031916815260200191505b50868103825287518152875160209182019189019080838360005b83811015620003d0578181015183820152602001620003b6565b50505050905090810190601f168015620003fe5780820380516001836020036101000a031916815260200191505b509b50505050505050505050505060405180910390a15050505050565b828054600181600116156101000203166002900490600052602060002090601f016020900481019282601f106200045e57805160ff19168380011785556200048e565b828001600101855582156200048e579182015b828111156200048e57825182559160200191906001019062000471565b506200049c929150620004a0565b5090565b620004bd91905b808211156200049c5760008155600101620004a7565b90565b610c2880620004d06000396000f3fe608060405234801561001057600080fd5b50600436106100415760003560e01c80636efb1b8414610046578063b84e5f0c1461027a578063def2d2a314610534575b600080fd5b6100636004803603602081101561005c57600080fd5b503561054e565b60405180878152602001806020018060200180602001806020018060200186810386528b818151815260200191508051906020019080838360005b838110156100b657818101518382015260200161009e565b50505050905090810190601f1680156100e35780820380516001836020036101000a031916815260200191505b5086810385528a5181528a516020918201918c019080838360005b838110156101165781810151838201526020016100fe565b50505050905090810190601f1680156101435780820380516001836020036101000a031916815260200191505b5086810384528951815289516020918201918b019080838360005b8381101561017657818101518382015260200161015e565b50505050905090810190601f1680156101a35780820380516001836020036101000a031916815260200191505b5086810383528851815288516020918201918a019080838360005b838110156101d65781810151838201526020016101be565b50505050905090810190601f1680156102035780820380516001836020036101000a031916815260200191505b50868103825287518152875160209182019189019080838360005b8381101561023657818101518382015260200161021e565b50505050905090810190601f1680156102635780820380516001836020036101000a031916815260200191505b509b50505050505050505050505060405180910390f35b610532600480360360a081101561029057600080fd5b810190602081018135600160201b8111156102aa57600080fd5b8201836020820111156102bc57600080fd5b803590602001918460018302840111600160201b831117156102dd57600080fd5b91908080601f0160208091040260200160405190810160405280939291908181526020018383808284376000920191909152509295949360208101935035915050600160201b81111561032f57600080fd5b82018360208201111561034157600080fd5b803590602001918460018302840111600160201b8311171561036257600080fd5b91908080601f0160208091040260200160405190810160405280939291908181526020018383808284376000920191909152509295949360208101935035915050600160201b8111156103b457600080fd5b8201836020820111156103c657600080fd5b803590602001918460018302840111600160201b831117156103e757600080fd5b91908080601f0160208091040260200160405190810160405280939291908181526020018383808284376000920191909152509295949360208101935035915050600160201b81111561043957600080fd5b82018360208201111561044b57600080fd5b803590602001918460018302840111600160201b8311171561046c57600080fd5b91908080601f0160208091040260200160405190810160405280939291908181526020018383808284376000920191909152509295949360208101935035915050600160201b8111156104be57600080fd5b8201836020820111156104d057600080fd5b803590602001918460018302840111600160201b831117156104f157600080fd5b91908080601f016020809104026020016040519081016040528093929190818152602001838380828437600092019190915250929550610836945050505050565b005b61053c610b52565b60408051918252519081900360200190f35b600160208181526000928352604092839020805481840180548651600296821615610100026000190190911695909504601f810185900485028601850190965285855290949193929091908301828280156105ea5780601f106105bf576101008083540402835291602001916105ea565b820191906000526020600020905b8154815290600101906020018083116105cd57829003601f168201915b50505060028085018054604080516020601f600019610100600187161502019094169590950492830185900485028101850190915281815295969594509092509083018282801561067c5780601f106106515761010080835404028352916020019161067c565b820191906000526020600020905b81548152906001019060200180831161065f57829003601f168201915b5050505060038301805460408051602060026001851615610100026000190190941693909304601f810184900484028201840190925281815294959493509083018282801561070c5780601f106106e15761010080835404028352916020019161070c565b820191906000526020600020905b8154815290600101906020018083116106ef57829003601f168201915b5050505060048301805460408051602060026001851615610100026000190190941693909304601f810184900484028201840190925281815294959493509083018282801561079c5780601f106107715761010080835404028352916020019161079c565b820191906000526020600020905b81548152906001019060200180831161077f57829003601f168201915b5050505060058301805460408051602060026001851615610100026000190190941693909304601f810184900484028201840190925281815294959493509083018282801561082c5780601f106108015761010080835404028352916020019161082c565b820191906000526020600020905b81548152906001019060200180831161080f57829003601f168201915b5050505050905086565b6000805460019081018083556040805160c08101825282815260208082018b81528284018b9052606083018a90526080830189905260a08301889052938652848152919094208451815591518051929361089893908501929190910190610b58565b50604082015180516108b4916002840191602090910190610b58565b50606082015180516108d0916003840191602090910190610b58565b50608082015180516108ec916004840191602090910190610b58565b5060a08201518051610908916005840191602090910190610b58565b509050507fef10807f56c3b4f2d472eba8ac4d25bca8d2c584884cbe289323666f74e9dcfb600054868686868660405180878152602001806020018060200180602001806020018060200186810386528b818151815260200191508051906020019080838360005b83811015610988578181015183820152602001610970565b50505050905090810190601f1680156109b55780820380516001836020036101000a031916815260200191505b5086810385528a5181528a516020918201918c019080838360005b838110156109e85781810151838201526020016109d0565b50505050905090810190601f168015610a155780820380516001836020036101000a031916815260200191505b5086810384528951815289516020918201918b019080838360005b83811015610a48578181015183820152602001610a30565b50505050905090810190601f168015610a755780820380516001836020036101000a031916815260200191505b5086810383528851815288516020918201918a019080838360005b83811015610aa8578181015183820152602001610a90565b50505050905090810190601f168015610ad55780820380516001836020036101000a031916815260200191505b50868103825287518152875160209182019189019080838360005b83811015610b08578181015183820152602001610af0565b50505050905090810190601f168015610b355780820380516001836020036101000a031916815260200191505b509b50505050505050505050505060405180910390a15050505050565b60005481565b828054600181600116156101000203166002900490600052602060002090601f016020900481019282601f10610b9957805160ff1916838001178555610bc6565b82800160010185558215610bc6579182015b82811115610bc6578251825591602001919060010190610bab565b50610bd2929150610bd6565b5090565b610bf091905b80821115610bd25760008155600101610bdc565b9056fea265627a7a723158209db6f256e65a8027b8d280a7f96ec8f70a7669cb536bfa0f527b510b14ab3aaa64736f6c63430005100032",
  "source": "// SPDX-License-Identifier: MIT\npragma solidity >=0.4.21 <0.7.0;\n\ncontract Doctors {\n    uint256 public DoctorCount = 0;\n    // Patients Model\n    struct Doctor {\n        uint256 doctorID;\n        string name;\n        string specialistType;\n        string phone;\n        string email;\n        string addr;\n    }\n\n    mapping(uint256 => Doctor) public doctors;\n\n    // Broadcasting when an patient event is created\n    event DoctorCreated(\n        uint256 doctorID,\n        string name,\n        string specialistType,\n        string phone,\n        string email,\n        string addr\n    );\n\n    // Constructor which initializes default values\n    constructor() public {\n        createDoctor(\n            \"Vivek\",\n            \"Psychologist\",\n            \"8054845360\",\n            \"vivekkumawat360@gmail.com\",\n            \"Ajmer\"\n        );\n    }\n\n    // A funnction to create patients\n\n    function createDoctor(\n        string memory _name,\n        string memory _specialistType,\n        string memory _phone,\n        string memory _email,\n        string memory _addr\n    ) public {\n        DoctorCount++;\n        doctors[DoctorCount] = Doctor(\n            DoctorCount,\n            _name,\n            _specialistType,\n            _phone,\n            _email,\n            _addr\n        );\n        emit DoctorCreated(\n            DoctorCount,\n            _name,\n            _specialistType,\n            _phone,\n            _email,\n            _addr\n        );\n    }\n}\n",
  "sourcePath": "/Users/vivek/Documents/cp/contracts/Doctors.sol",
  "compiler": {
    "name": "solc",
    "version": "0.5.16+commit.9c3226ce.Emscripten.clang"
  },
  "schemaVersion": "3.2.4",
  "updatedAt": "2020-09-11T05:17:11.794Z",
  "networkType": "ethereum",
  "devdoc": {
    "methods": {}
  },
  "userdoc": {
    "methods": {}
  }
}