{
  "contractName": "Patients",
  "abi": [
    {
      "inputs": [],
      "payable": false,
      "stateMutability": "nonpayable",
      "type": "constructor"
    },
    {
      "anonymous": false,
      "inputs": [
        {
          "indexed": false,
          "internalType": "uint256",
          "name": "id",
          "type": "uint256"
        },
        {
          "indexed": false,
          "internalType": "string",
          "name": "name",
          "type": "string"
        },
        {
          "indexed": false,
          "internalType": "string",
          "name": "email",
          "type": "string"
        },
        {
          "indexed": false,
          "internalType": "string",
          "name": "phone",
          "type": "string"
        },
        {
          "indexed": false,
          "internalType": "string",
          "name": "gender",
          "type": "string"
        },
        {
          "indexed": false,
          "internalType": "string",
          "name": "age",
          "type": "string"
        },
        {
          "indexed": false,
          "internalType": "string",
          "name": "addr",
          "type": "string"
        }
      ],
      "name": "PatientCreated",
      "type": "event"
    },
    {
      "constant": true,
      "inputs": [],
      "name": "PatientCount",
      "outputs": [
        {
          "internalType": "uint256",
          "name": "",
          "type": "uint256"
        }
      ],
      "payable": false,
      "stateMutability": "view",
      "type": "function"
    },
    {
      "constant": true,
      "inputs": [
        {
          "internalType": "uint256",
          "name": "",
          "type": "uint256"
        }
      ],
      "name": "patients",
      "outputs": [
        {
          "internalType": "uint256",
          "name": "id",
          "type": "uint256"
        },
        {
          "internalType": "string",
          "name": "name",
          "type": "string"
        },
        {
          "internalType": "string",
          "name": "email",
          "type": "string"
        },
        {
          "internalType": "string",
          "name": "phone",
          "type": "string"
        },
        {
          "internalType": "string",
          "name": "gender",
          "type": "string"
        },
        {
          "internalType": "string",
          "name": "age",
          "type": "string"
        },
        {
          "internalType": "string",
          "name": "addr",
          "type": "string"
        }
      ],
      "payable": false,
      "stateMutability": "view",
      "type": "function"
    },
    {
      "constant": false,
      "inputs": [
        {
          "internalType": "string",
          "name": "_name",
          "type": "string"
        },
        {
          "internalType": "string",
          "name": "_email",
          "type": "string"
        },
        {
          "internalType": "string",
          "name": "_phone",
          "type": "string"
        },
        {
          "internalType": "string",
          "name": "_gender",
          "type": "string"
        },
        {
          "internalType": "string",
          "name": "_age",
          "type": "string"
        },
        {
          "internalType": "string",
          "name": "_addr",
          "type": "string"
        }
      ],
      "name": "createPatient",
      "outputs": [],
      "payable": false,
      "stateMutability": "nonpayable",
      "type": "function"
    }
  ],
  "bytecode": "0x6080604052600080553480156200001557600080fd5b50620000f060405180604001604052806005815260200164566976656b60d81b8152506040518060400160405280601981526020017f766976656b6b756d6177617433363040676d61696c2e636f6d000000000000008152506040518060400160405280600a8152602001690383035343834353336360b41b815250604051806040016040528060018152602001604d60f81b81525060405180604001604052806002815260200161191960f11b8152506040518060400160405280600581526020016420b536b2b960d91b815250620000f660201b60201c565b62000560565b6000805460019081018083556040805160e08101825282815260208082018c81528284018c9052606083018b9052608083018a905260a0830189905260c0830188905293865284815291909420845181559151805192936200016193908501929190910190620004bb565b50604082015180516200017f916002840191602090910190620004bb565b50606082015180516200019d916003840191602090910190620004bb565b5060808201518051620001bb916004840191602090910190620004bb565b5060a08201518051620001d9916005840191602090910190620004bb565b5060c08201518051620001f7916006840191602090910190620004bb565b509050507fdb9c59ec2cf2c149952f1eb2dafa7b7d11ba129fce9a7d024b5f61b06685c8b16000548787878787876040518088815260200180602001806020018060200180602001806020018060200187810387528d818151815260200191508051906020019080838360005b838110156200027e57818101518382015260200162000264565b50505050905090810190601f168015620002ac5780820380516001836020036101000a031916815260200191505b5087810386528c5181528c516020918201918e019080838360005b83811015620002e1578181015183820152602001620002c7565b50505050905090810190601f1680156200030f5780820380516001836020036101000a031916815260200191505b5087810385528b5181528b516020918201918d019080838360005b83811015620003445781810151838201526020016200032a565b50505050905090810190601f168015620003725780820380516001836020036101000a031916815260200191505b5087810384528a5181528a516020918201918c019080838360005b83811015620003a75781810151838201526020016200038d565b50505050905090810190601f168015620003d55780820380516001836020036101000a031916815260200191505b5087810383528951815289516020918201918b019080838360005b838110156200040a578181015183820152602001620003f0565b50505050905090810190601f168015620004385780820380516001836020036101000a031916815260200191505b5087810382528851815288516020918201918a019080838360005b838110156200046d57818101518382015260200162000453565b50505050905090810190601f1680156200049b5780820380516001836020036101000a031916815260200191505b509d505050505050505050505050505060405180910390a1505050505050565b828054600181600116156101000203166002900490600052602060002090601f016020900481019282601f10620004fe57805160ff19168380011785556200052e565b828001600101855582156200052e579182015b828111156200052e57825182559160200191906001019062000511565b506200053c92915062000540565b5090565b6200055d91905b808211156200053c576000815560010162000547565b90565b610e2e80620005706000396000f3fe608060405234801561001057600080fd5b50600436106100415760003560e01c806340a1b5ac1461004657806393119a8314610385578063e90b70c01461061f575b600080fd5b610383600480360360c081101561005c57600080fd5b810190602081018135600160201b81111561007657600080fd5b82018360208201111561008857600080fd5b803590602001918460018302840111600160201b831117156100a957600080fd5b91908080601f0160208091040260200160405190810160405280939291908181526020018383808284376000920191909152509295949360208101935035915050600160201b8111156100fb57600080fd5b82018360208201111561010d57600080fd5b803590602001918460018302840111600160201b8311171561012e57600080fd5b91908080601f0160208091040260200160405190810160405280939291908181526020018383808284376000920191909152509295949360208101935035915050600160201b81111561018057600080fd5b82018360208201111561019257600080fd5b803590602001918460018302840111600160201b831117156101b357600080fd5b91908080601f0160208091040260200160405190810160405280939291908181526020018383808284376000920191909152509295949360208101935035915050600160201b81111561020557600080fd5b82018360208201111561021757600080fd5b803590602001918460018302840111600160201b8311171561023857600080fd5b91908080601f0160208091040260200160405190810160405280939291908181526020018383808284376000920191909152509295949360208101935035915050600160201b81111561028a57600080fd5b82018360208201111561029c57600080fd5b803590602001918460018302840111600160201b831117156102bd57600080fd5b91908080601f0160208091040260200160405190810160405280939291908181526020018383808284376000920191909152509295949360208101935035915050600160201b81111561030f57600080fd5b82018360208201111561032157600080fd5b803590602001918460018302840111600160201b8311171561034257600080fd5b91908080601f016020809104026020016040519081016040528093929190818152602001838380828437600092019190915250929550610639945050505050565b005b6103a26004803603602081101561039b57600080fd5b50356109e0565b6040518088815260200180602001806020018060200180602001806020018060200187810387528d818151815260200191508051906020019080838360005b838110156103f95781810151838201526020016103e1565b50505050905090810190601f1680156104265780820380516001836020036101000a031916815260200191505b5087810386528c5181528c516020918201918e019080838360005b83811015610459578181015183820152602001610441565b50505050905090810190601f1680156104865780820380516001836020036101000a031916815260200191505b5087810385528b5181528b516020918201918d019080838360005b838110156104b95781810151838201526020016104a1565b50505050905090810190601f1680156104e65780820380516001836020036101000a031916815260200191505b5087810384528a5181528a516020918201918c019080838360005b83811015610519578181015183820152602001610501565b50505050905090810190601f1680156105465780820380516001836020036101000a031916815260200191505b5087810383528951815289516020918201918b019080838360005b83811015610579578181015183820152602001610561565b50505050905090810190601f1680156105a65780820380516001836020036101000a031916815260200191505b5087810382528851815288516020918201918a019080838360005b838110156105d95781810151838201526020016105c1565b50505050905090810190601f1680156106065780820380516001836020036101000a031916815260200191505b509d505050505050505050505050505060405180910390f35b610627610d58565b60408051918252519081900360200190f35b6000805460019081018083556040805160e08101825282815260208082018c81528284018c9052606083018b9052608083018a905260a0830189905260c0830188905293865284815291909420845181559151805192936106a293908501929190910190610d5e565b50604082015180516106be916002840191602090910190610d5e565b50606082015180516106da916003840191602090910190610d5e565b50608082015180516106f6916004840191602090910190610d5e565b5060a08201518051610712916005840191602090910190610d5e565b5060c0820151805161072e916006840191602090910190610d5e565b509050507fdb9c59ec2cf2c149952f1eb2dafa7b7d11ba129fce9a7d024b5f61b06685c8b16000548787878787876040518088815260200180602001806020018060200180602001806020018060200187810387528d818151815260200191508051906020019080838360005b838110156107b357818101518382015260200161079b565b50505050905090810190601f1680156107e05780820380516001836020036101000a031916815260200191505b5087810386528c5181528c516020918201918e019080838360005b838110156108135781810151838201526020016107fb565b50505050905090810190601f1680156108405780820380516001836020036101000a031916815260200191505b5087810385528b5181528b516020918201918d019080838360005b8381101561087357818101518382015260200161085b565b50505050905090810190601f1680156108a05780820380516001836020036101000a031916815260200191505b5087810384528a5181528a516020918201918c019080838360005b838110156108d35781810151838201526020016108bb565b50505050905090810190601f1680156109005780820380516001836020036101000a031916815260200191505b5087810383528951815289516020918201918b019080838360005b8381101561093357818101518382015260200161091b565b50505050905090810190601f1680156109605780820380516001836020036101000a031916815260200191505b5087810382528851815288516020918201918a019080838360005b8381101561099357818101518382015260200161097b565b50505050905090810190601f1680156109c05780820380516001836020036101000a031916815260200191505b509d505050505050505050505050505060405180910390a1505050505050565b600160208181526000928352604092839020805481840180548651600296821615610100026000190190911695909504601f81018590048502860185019096528585529094919392909190830182828015610a7c5780601f10610a5157610100808354040283529160200191610a7c565b820191906000526020600020905b815481529060010190602001808311610a5f57829003601f168201915b50505060028085018054604080516020601f6000196101006001871615020190941695909504928301859004850281018501909152818152959695945090925090830182828015610b0e5780601f10610ae357610100808354040283529160200191610b0e565b820191906000526020600020905b815481529060010190602001808311610af157829003601f168201915b5050505060038301805460408051602060026001851615610100026000190190941693909304601f8101849004840282018401909252818152949594935090830182828015610b9e5780601f10610b7357610100808354040283529160200191610b9e565b820191906000526020600020905b815481529060010190602001808311610b8157829003601f168201915b5050505060048301805460408051602060026001851615610100026000190190941693909304601f8101849004840282018401909252818152949594935090830182828015610c2e5780601f10610c0357610100808354040283529160200191610c2e565b820191906000526020600020905b815481529060010190602001808311610c1157829003601f168201915b5050505060058301805460408051602060026001851615610100026000190190941693909304601f8101849004840282018401909252818152949594935090830182828015610cbe5780601f10610c9357610100808354040283529160200191610cbe565b820191906000526020600020905b815481529060010190602001808311610ca157829003601f168201915b5050505060068301805460408051602060026001851615610100026000190190941693909304601f8101849004840282018401909252818152949594935090830182828015610d4e5780601f10610d2357610100808354040283529160200191610d4e565b820191906000526020600020905b815481529060010190602001808311610d3157829003601f168201915b5050505050905087565b60005481565b828054600181600116156101000203166002900490600052602060002090601f016020900481019282601f10610d9f57805160ff1916838001178555610dcc565b82800160010185558215610dcc579182015b82811115610dcc578251825591602001919060010190610db1565b50610dd8929150610ddc565b5090565b610df691905b80821115610dd85760008155600101610de2565b9056fea265627a7a72315820bbcf3094f919886aa11e1e8149da56fb1476785a9475c94059b10948e8294f9364736f6c63430005100032",
  "source": "// SPDX-License-Identifier: MIT\npragma solidity >=0.4.21 <0.7.0;\n\ncontract Patients {\n    uint256 public PatientCount = 0;\n    // Patients Model\n    struct Patient {\n        uint256 id;\n        string name;\n        string email;\n        string phone;\n        string gender;\n        string age;\n        string addr;\n    }\n\n    mapping(uint256 => Patient) public patients;\n\n    // Broadcasting when an patient event is created\n    event PatientCreated(\n        uint256 id,\n        string name,\n        string email,\n        string phone,\n        string gender,\n        string age,\n        string addr\n    );\n\n    // Constructor which initializes default values\n    constructor() public {\n        createPatient(\n            \"Vivek\",\n            \"vivekkumawat360@gmail.com\",\n            \"8054845360\",\n            \"M\",\n            \"22\",\n            \"Ajmer\"\n        );\n    }\n\n    // A funnction to create patients\n\n    function createPatient(\n        string memory _name,\n        string memory _email,\n        string memory _phone,\n        string memory _gender,\n        string memory _age,\n        string memory _addr\n    ) public {\n        PatientCount++;\n        patients[PatientCount] = Patient(\n            PatientCount,\n            _name,\n            _email,\n            _phone,\n            _gender,\n            _age,\n            _addr\n        );\n        emit PatientCreated(\n            PatientCount,\n            _name,\n            _email,\n            _phone,\n            _gender,\n            _age,\n            _addr\n        );\n    }\n}\n",
  "sourcePath": "/Users/vivek/Documents/cp/contracts/Patients.sol",
  "compiler": {
    "name": "solc",
    "version": "0.5.16+commit.9c3226ce.Emscripten.clang"
  },
  "schemaVersion": "3.2.4",
  "updatedAt": "2020-09-11T05:17:11.786Z",
  "networkType": "ethereum",
  "devdoc": {
    "methods": {}
  },
  "userdoc": {
    "methods": {}
  }
}