{
  "contractName": "Prescriptions",
  "abi": [
    {
      "inputs": [],
      "payable": false,
      "stateMutability": "nonpayable",
      "type": "constructor"
    },
    {
      "anonymous": false,
      "inputs": [
        {
          "indexed": false,
          "internalType": "uint256",
          "name": "id",
          "type": "uint256"
        },
        {
          "indexed": false,
          "internalType": "string",
          "name": "namprescriptionPDF",
          "type": "string"
        }
      ],
      "name": "PrescriptionCreated",
      "type": "event"
    },
    {
      "constant": true,
      "inputs": [],
      "name": "PrescriptionCount",
      "outputs": [
        {
          "internalType": "uint256",
          "name": "",
          "type": "uint256"
        }
      ],
      "payable": false,
      "stateMutability": "view",
      "type": "function"
    },
    {
      "constant": true,
      "inputs": [
        {
          "internalType": "uint256",
          "name": "",
          "type": "uint256"
        }
      ],
      "name": "prescriptions",
      "outputs": [
        {
          "internalType": "uint256",
          "name": "id",
          "type": "uint256"
        },
        {
          "internalType": "string",
          "name": "prescriptionPDF",
          "type": "string"
        }
      ],
      "payable": false,
      "stateMutability": "view",
      "type": "function"
    },
    {
      "constant": false,
      "inputs": [
        {
          "internalType": "string",
          "name": "_prescriptionPDF",
          "type": "string"
        }
      ],
      "name": "createPrescription",
      "outputs": [],
      "payable": false,
      "stateMutability": "nonpayable",
      "type": "function"
    }
  ],
  "bytecode": "0x60806040526000805534801561001457600080fd5b5060408051808201909152600a8152693430b9b42337b928222360b11b6020820152610048906001600160e01b0361004d16565b6101d8565b600080546001908101808355604080518082018252828152602080820187815293865284815291909420845181559151805192936100939390850192919091019061013d565b509050507fbf7faeaed010fe8906399c777a29e8bffdd88d78cd280795d46bb3d23beaa071600054826040518083815260200180602001828103825283818151815260200191508051906020019080838360005b838110156100ff5781810151838201526020016100e7565b50505050905090810190601f16801561012c5780820380516001836020036101000a031916815260200191505b50935050505060405180910390a150565b828054600181600116156101000203166002900490600052602060002090601f016020900481019282601f1061017e57805160ff19168380011785556101ab565b828001600101855582156101ab579182015b828111156101ab578251825591602001919060010190610190565b506101b79291506101bb565b5090565b6101d591905b808211156101b757600081556001016101c1565b90565b610410806101e76000396000f3fe608060405234801561001057600080fd5b50600436106100415760003560e01c806313da82391461004657806331dfc91b1461006057806394eeb7e2146100fc575b600080fd5b61004e6101a4565b60408051918252519081900360200190f35b61007d6004803603602081101561007657600080fd5b50356101aa565b6040518083815260200180602001828103825283818151815260200191508051906020019080838360005b838110156100c05781810151838201526020016100a8565b50505050905090810190601f1680156100ed5780820380516001836020036101000a031916815260200191505b50935050505060405180910390f35b6101a26004803603602081101561011257600080fd5b81019060208101813564010000000081111561012d57600080fd5b82018360208201111561013f57600080fd5b8035906020019184600183028401116401000000008311171561016157600080fd5b91908080601f016020809104026020016040519081016040528093929190818152602001838380828437600092019190915250929550610250945050505050565b005b60005481565b600160208181526000928352604092839020805481840180548651600296821615610100026000190190911695909504601f810185900485028601850190965285855290949193929091908301828280156102465780601f1061021b57610100808354040283529160200191610246565b820191906000526020600020905b81548152906001019060200180831161022957829003601f168201915b5050505050905082565b6000805460019081018083556040805180820182528281526020808201878152938652848152919094208451815591518051929361029693908501929190910190610340565b509050507fbf7faeaed010fe8906399c777a29e8bffdd88d78cd280795d46bb3d23beaa071600054826040518083815260200180602001828103825283818151815260200191508051906020019080838360005b838110156103025781810151838201526020016102ea565b50505050905090810190601f16801561032f5780820380516001836020036101000a031916815260200191505b50935050505060405180910390a150565b828054600181600116156101000203166002900490600052602060002090601f016020900481019282601f1061038157805160ff19168380011785556103ae565b828001600101855582156103ae579182015b828111156103ae578251825591602001919060010190610393565b506103ba9291506103be565b5090565b6103d891905b808211156103ba57600081556001016103c4565b9056fea265627a7a723158205476ac91faf8bf171982b88ca816f0c08f960e22dc0a780ad068806c9a96eb5b64736f6c63430005100032",
  "source": "// SPDX-License-Identifier: MIT\npragma solidity >=0.4.21 <0.7.0;\n\ncontract Prescriptions {\n    uint256 public PrescriptionCount = 0;\n    // Patients Model\n    struct Prescription {\n        uint256 id;\n        string prescriptionPDF;\n    }\n\n    mapping(uint256 => Prescription) public prescriptions;\n\n    // Broadcasting when an patient event is created\n    event PrescriptionCreated(uint256 id, string namprescriptionPDF);\n\n    // Constructor which initializes default values\n    constructor() public {\n        createPrescription(\"hashForPDF\");\n    }\n\n    // A funnction to create patients\n\n    function createPrescription(string memory _prescriptionPDF) public {\n        PrescriptionCount++;\n        prescriptions[PrescriptionCount] = Prescription(\n            PrescriptionCount,\n            _prescriptionPDF\n        );\n        emit PrescriptionCreated(PrescriptionCount, _prescriptionPDF);\n    }\n}\n",
  "sourcePath": "/Users/vivek/Documents/cp/contracts/Prescriptions.sol",
  "compiler": {
    "name": "solc",
    "version": "0.5.16+commit.9c3226ce.Emscripten.clang"
  },
  "schemaVersion": "3.2.4",
  "updatedAt": "2020-09-11T05:17:11.792Z",
  "networkType": "ethereum",
  "devdoc": {
    "methods": {}
  },
  "userdoc": {
    "methods": {}
  }
}