{
  "contractName": "Reports",
  "abi": [
    {
      "inputs": [],
      "payable": false,
      "stateMutability": "nonpayable",
      "type": "constructor"
    },
    {
      "anonymous": false,
      "inputs": [
        {
          "indexed": false,
          "internalType": "uint256",
          "name": "id",
          "type": "uint256"
        },
        {
          "indexed": false,
          "internalType": "string",
          "name": "reportPdf",
          "type": "string"
        },
        {
          "indexed": false,
          "internalType": "string",
          "name": "reportDesc",
          "type": "string"
        },
        {
          "indexed": false,
          "internalType": "uint256",
          "name": "PrescriptionID",
          "type": "uint256"
        },
        {
          "indexed": false,
          "internalType": "uint256",
          "name": "doctorID",
          "type": "uint256"
        }
      ],
      "name": "ReportCreated",
      "type": "event"
    },
    {
      "constant": true,
      "inputs": [],
      "name": "ReportCount",
      "outputs": [
        {
          "internalType": "uint256",
          "name": "",
          "type": "uint256"
        }
      ],
      "payable": false,
      "stateMutability": "view",
      "type": "function"
    },
    {
      "constant": true,
      "inputs": [
        {
          "internalType": "uint256",
          "name": "",
          "type": "uint256"
        }
      ],
      "name": "reports",
      "outputs": [
        {
          "internalType": "uint256",
          "name": "id",
          "type": "uint256"
        },
        {
          "internalType": "string",
          "name": "reportPdf",
          "type": "string"
        },
        {
          "internalType": "string",
          "name": "reportDesc",
          "type": "string"
        },
        {
          "internalType": "uint256",
          "name": "Prescription",
          "type": "uint256"
        },
        {
          "internalType": "uint256",
          "name": "doctorDetails",
          "type": "uint256"
        }
      ],
      "payable": false,
      "stateMutability": "view",
      "type": "function"
    },
    {
      "constant": false,
      "inputs": [
        {
          "internalType": "string",
          "name": "_reportPdf",
          "type": "string"
        },
        {
          "internalType": "string",
          "name": "_reportDesc",
          "type": "string"
        },
        {
          "internalType": "uint256",
          "name": "_PrescriptionID",
          "type": "uint256"
        },
        {
          "internalType": "uint256",
          "name": "_doctorID",
          "type": "uint256"
        }
      ],
      "name": "createReport",
      "outputs": [],
      "payable": false,
      "stateMutability": "nonpayable",
      "type": "function"
    }
  ],
  "bytecode": "0x60806040526000805534801561001457600080fd5b5061007f6040518060400160405280600a8152602001690e4cae0dee4e89082a6960b31b8152506040518060400160405280601a81526020017f536f6d654465736372697074696f6e41626f75745265706f727400000000000081525060018061008460201b60201c565b6102ce565b6000805460019081018083556040805160a08101825282815260208082018a81528284018a9052606083018990526080830188905293865284815291909420845181559151805192936100df93908501929190910190610233565b50604082015180516100fb916002840191602090910190610233565b5060608201518160030155608082015181600401559050507f10ae5d9d9c387bba4110bcac6ec94ff2bc2446122fd50ccb31aecb642521161960005485858585604051808681526020018060200180602001858152602001848152602001838103835287818151815260200191508051906020019080838360005b8381101561018e578181015183820152602001610176565b50505050905090810190601f1680156101bb5780820380516001836020036101000a031916815260200191505b50838103825286518152865160209182019188019080838360005b838110156101ee5781810151838201526020016101d6565b50505050905090810190601f16801561021b5780820380516001836020036101000a031916815260200191505b5097505050505050505060405180910390a150505050565b828054600181600116156101000203166002900490600052602060002090601f016020900481019282601f1061027457805160ff19168380011785556102a1565b828001600101855582156102a1579182015b828111156102a1578251825591602001919060010190610286565b506102ad9291506102b1565b5090565b6102cb91905b808211156102ad57600081556001016102b7565b90565b61066d806102dd6000396000f3fe608060405234801561001057600080fd5b50600436106100415760003560e01c806379f931d6146100465780637cc8e34014610060578063c942adf714610194575b600080fd5b61004e6102a4565b60408051918252519081900360200190f35b6101926004803603608081101561007657600080fd5b81019060208101813564010000000081111561009157600080fd5b8201836020820111156100a357600080fd5b803590602001918460018302840111640100000000831117156100c557600080fd5b91908080601f016020809104026020016040519081016040528093929190818152602001838380828437600092019190915250929594936020810193503591505064010000000081111561011857600080fd5b82018360208201111561012a57600080fd5b8035906020019184600183028401116401000000008311171561014c57600080fd5b91908080601f01602080910402602001604051908101604052809392919081815260200183838082843760009201919091525092955050823593505050602001356102aa565b005b6101b1600480360360208110156101aa57600080fd5b5035610459565b604051808681526020018060200180602001858152602001848152602001838103835287818151815260200191508051906020019080838360005b838110156102045781810151838201526020016101ec565b50505050905090810190601f1680156102315780820380516001836020036101000a031916815260200191505b50838103825286518152865160209182019188019080838360005b8381101561026457818101518382015260200161024c565b50505050905090810190601f1680156102915780820380516001836020036101000a031916815260200191505b5097505050505050505060405180910390f35b60005481565b6000805460019081018083556040805160a08101825282815260208082018a81528284018a9052606083018990526080830188905293865284815291909420845181559151805192936103059390850192919091019061059d565b506040820151805161032191600284019160209091019061059d565b5060608201518160030155608082015181600401559050507f10ae5d9d9c387bba4110bcac6ec94ff2bc2446122fd50ccb31aecb642521161960005485858585604051808681526020018060200180602001858152602001848152602001838103835287818151815260200191508051906020019080838360005b838110156103b457818101518382015260200161039c565b50505050905090810190601f1680156103e15780820380516001836020036101000a031916815260200191505b50838103825286518152865160209182019188019080838360005b838110156104145781810151838201526020016103fc565b50505050905090810190601f1680156104415780820380516001836020036101000a031916815260200191505b5097505050505050505060405180910390a150505050565b600160208181526000928352604092839020805481840180548651600296821615610100026000190190911695909504601f810185900485028601850190965285855290949193929091908301828280156104f55780601f106104ca576101008083540402835291602001916104f5565b820191906000526020600020905b8154815290600101906020018083116104d857829003601f168201915b50505060028085018054604080516020601f60001961010060018716150201909416959095049283018590048502810185019091528181529596959450909250908301828280156105875780601f1061055c57610100808354040283529160200191610587565b820191906000526020600020905b81548152906001019060200180831161056a57829003601f168201915b5050505050908060030154908060040154905085565b828054600181600116156101000203166002900490600052602060002090601f016020900481019282601f106105de57805160ff191683800117855561060b565b8280016001018555821561060b579182015b8281111561060b5782518255916020019190600101906105f0565b5061061792915061061b565b5090565b61063591905b808211156106175760008155600101610621565b9056fea265627a7a723158209ff47ca90ceb77282fb2b35416520c1419f7b8ba51074342612406332bda17bb64736f6c63430005100032",
  "source": "// SPDX-License-Identifier: MIT\npragma solidity >=0.4.21 <0.7.0;\n\ncontract Reports {\n    uint256 public ReportCount = 0;\n    // Patients Model\n    struct Report {\n        uint256 id;\n        string reportPdf;\n        string reportDesc;\n        uint256 Prescription;\n        uint256 doctorDetails;\n    }\n\n    mapping(uint256 => Report) public reports;\n\n    // Broadcasting when an patient event is created\n    event ReportCreated(\n        uint256 id,\n        string reportPdf,\n        string reportDesc,\n        uint256 PrescriptionID,\n        uint256 doctorID\n    );\n\n    // Constructor which initializes default values\n    constructor() public {\n        createReport(\"reportHASH\", \"SomeDescriptionAboutReport\", 1, 1);\n    }\n\n    // A funnction to create patients\n\n    function createReport(\n        string memory _reportPdf,\n        string memory _reportDesc,\n        uint256 _PrescriptionID,\n        uint256 _doctorID\n    ) public {\n        ReportCount++;\n        reports[ReportCount] = Report(\n            ReportCount,\n            _reportPdf,\n            _reportDesc,\n            _PrescriptionID,\n            _doctorID\n        );\n        emit ReportCreated(\n            ReportCount,\n            _reportPdf,\n            _reportDesc,\n            _PrescriptionID,\n            _doctorID\n        );\n    }\n}\n",
  "sourcePath": "/Users/vivek/Documents/cp/contracts/Reports.sol",
  "compiler": {
    "name": "solc",
    "version": "0.5.16+commit.9c3226ce.Emscripten.clang"
  },
  "schemaVersion": "3.2.4",
  "updatedAt": "2020-09-11T05:17:11.789Z",
  "networkType": "ethereum",
  "devdoc": {
    "methods": {}
  },
  "userdoc": {
    "methods": {}
  }
}